{
  "_format": "hh-sol-artifact-1",
  "contractName": "RewardsDistributor",
  "sourceName": "contracts/rewards/RewardsDistributor.sol",
  "abi": [
    {
      "inputs": [
        {
          "internalType": "address",
          "name": "_nexus",
          "type": "address"
        },
        {
          "internalType": "address[]",
          "name": "_fundManagers",
          "type": "address[]"
        }
      ],
      "payable": false,
      "stateMutability": "nonpayable",
      "type": "constructor"
    },
    {
      "anonymous": false,
      "inputs": [
        {
          "indexed": false,
          "internalType": "address",
          "name": "funder",
          "type": "address"
        },
        {
          "indexed": false,
          "internalType": "address",
          "name": "recipient",
          "type": "address"
        },
        {
          "indexed": false,
          "internalType": "address",
          "name": "rewardToken",
          "type": "address"
        },
        {
          "indexed": false,
          "internalType": "uint256",
          "name": "amount",
          "type": "uint256"
        },
        {
          "indexed": false,
          "internalType": "address",
          "name": "platformToken",
          "type": "address"
        },
        {
          "indexed": false,
          "internalType": "uint256",
          "name": "platformAmount",
          "type": "uint256"
        }
      ],
      "name": "DistributedReward",
      "type": "event"
    },
    {
      "anonymous": false,
      "inputs": [
        {
          "indexed": true,
          "internalType": "address",
          "name": "_address",
          "type": "address"
        }
      ],
      "name": "RemovedFundManager",
      "type": "event"
    },
    {
      "anonymous": false,
      "inputs": [
        {
          "indexed": true,
          "internalType": "address",
          "name": "_address",
          "type": "address"
        }
      ],
      "name": "Whitelisted",
      "type": "event"
    },
    {
      "constant": false,
      "inputs": [
        {
          "internalType": "address",
          "name": "_address",
          "type": "address"
        }
      ],
      "name": "addFundManager",
      "outputs": [],
      "payable": false,
      "stateMutability": "nonpayable",
      "type": "function"
    },
    {
      "constant": false,
      "inputs": [
        {
          "internalType": "contract IRewardsDistributionRecipient[]",
          "name": "_recipients",
          "type": "address[]"
        },
        {
          "internalType": "uint256[]",
          "name": "_amounts",
          "type": "uint256[]"
        },
        {
          "internalType": "uint256[]",
          "name": "_platformAmounts",
          "type": "uint256[]"
        }
      ],
      "name": "distributeRewards",
      "outputs": [],
      "payable": false,
      "stateMutability": "nonpayable",
      "type": "function"
    },
    {
      "constant": true,
      "inputs": [],
      "name": "nexus",
      "outputs": [
        {
          "internalType": "contract INexus",
          "name": "",
          "type": "address"
        }
      ],
      "payable": false,
      "stateMutability": "view",
      "type": "function"
    },
    {
      "constant": false,
      "inputs": [
        {
          "internalType": "address",
          "name": "_address",
          "type": "address"
        }
      ],
      "name": "removeFundManager",
      "outputs": [],
      "payable": false,
      "stateMutability": "nonpayable",
      "type": "function"
    },
    {
      "constant": true,
      "inputs": [
        {
          "internalType": "address",
          "name": "",
          "type": "address"
        }
      ],
      "name": "whitelist",
      "outputs": [
        {
          "internalType": "bool",
          "name": "",
          "type": "bool"
        }
      ],
      "payable": false,
      "stateMutability": "view",
      "type": "function"
    }
  ],
  "bytecode": "0x60806040523480156200001157600080fd5b50604051620011f9380380620011f9833981810160405260408110156200003757600080fd5b8151602083018051604051929492938301929190846401000000008211156200005f57600080fd5b9083019060208201858111156200007557600080fd5b82518660208202830111640100000000821117156200009357600080fd5b82525081516020918201928201910280838360005b83811015620000c2578181015183820152602001620000a8565b50505050905001604052505050620000e68282620000ee60201b62000b641760201c565b50506200042e565b62000104826200019b60201b62000bf01760201c565b60008151116200015b576040805162461bcd60e51b815260206004820152601560248201527f456d7074792077686974656c6973742061727261790000000000000000000000604482015290519081900360640190fd5b60005b815181101562000196576200018d8282815181106200017957fe5b60200260200101516200022b60201b60201c565b6001016200015e565b505050565b6001600160a01b038116620001f7576040805162461bcd60e51b815260206004820152601560248201527f4e657875732061646472657373206973207a65726f0000000000000000000000604482015290519081900360640190fd5b600880546001600160a01b0319166001600160a01b0383161790556200022862000334602090811b62000c6217901c565b50565b6001600160a01b03811662000279576040805162461bcd60e51b815260206004820152600f60248201526e41646472657373206973207a65726f60881b604482015290519081900360640190fd5b6001600160a01b03811660009081526009602052604090205460ff1615620002e8576040805162461bcd60e51b815260206004820152601360248201527f416c72656164792077686974656c697374656400000000000000000000000000604482015290519081900360640190fd5b6001600160a01b038116600081815260096020526040808220805460ff19166001179055517faab7954e9d246b167ef88aeddad35209ca2489d95a8aeb59e288d9b19fae5a549190a250565b6040805169476f7665726e616e636560b01b8152815190819003600a9081018220600055665374616b696e6760c81b82528251918290036007908101832060015569283937bc3ca0b236b4b760b11b835283519283900390910182206002556827b930b1b632a43ab160b91b8252825191829003600990810183206003556626b0b730b3b2b960c91b8352835192839003820183206004556f2932b1b7b63630ba32b930b634b9b2b960811b835283519283900360100183206005556826b2ba30aa37b5b2b760b91b83528351928390030182206006556d29b0bb34b733b9a6b0b730b3b2b960911b8252915190819003600e0190209055565b610dbb806200043e6000396000f3fe608060405234801561001057600080fd5b50600436106100575760003560e01c8063179c40551461005c5780639b19251a14610084578063a3f5c1d2146100be578063c533edb1146100e2578063d9b54946146101f6575b600080fd5b6100826004803603602081101561007257600080fd5b50356001600160a01b031661021c565b005b6100aa6004803603602081101561009a57600080fd5b50356001600160a01b0316610388565b604080519115158252519081900360200190f35b6100c661039d565b604080516001600160a01b039092168252519081900360200190f35b610082600480360360608110156100f857600080fd5b81019060208101813564010000000081111561011357600080fd5b82018360208201111561012557600080fd5b8035906020019184602083028401116401000000008311171561014757600080fd5b91939092909160208101903564010000000081111561016557600080fd5b82018360208201111561017757600080fd5b8035906020019184602083028401116401000000008311171561019957600080fd5b9193909290916020810190356401000000008111156101b757600080fd5b8201836020820111156101c957600080fd5b803590602001918460208302840111640100000000831117156101eb57600080fd5b5090925090506103ac565b6100826004803603602081101561020c57600080fd5b50356001600160a01b0316610728565b61022461079d565b6001600160a01b0316336001600160a01b031614610285576040805162461bcd60e51b81526020600482015260196024820152784f6e6c7920676f7665726e6f722063616e206578656375746560381b604482015290519081900360640190fd5b6001600160a01b0381166102d2576040805162461bcd60e51b815260206004820152600f60248201526e41646472657373206973207a65726f60881b604482015290519081900360640190fd5b6001600160a01b03811660009081526009602052604090205460ff1661033f576040805162461bcd60e51b815260206004820152601a60248201527f41646472657373206973206e6f742077686974656c6973746564000000000000604482015290519081900360640190fd5b6001600160a01b038116600081815260096020526040808220805460ff19169055517fd5031334bc3e0470dfa530d3222eb2107f55f3b11fd4c07c008cdbef0d528ee79190a250565b60096020526000908152604090205460ff1681565b6008546001600160a01b031681565b3360009081526009602052604090205460ff16610410576040805162461bcd60e51b815260206004820152601960248201527f4e6f7420612077686974656c6973746564206164647265737300000000000000604482015290519081900360640190fd5b848061045c576040805162461bcd60e51b81526020600482015260166024820152754d7573742063686f6f736520726563697069656e747360501b604482015290519081900360640190fd5b8084146104a5576040805162461bcd60e51b81526020600482015260126024820152714d69736d61746368696e6720696e7075747360701b604482015290519081900360640190fd5b8082146104ee576040805162461bcd60e51b81526020600482015260126024820152714d69736d61746368696e6720696e7075747360701b604482015290519081900360640190fd5b60005b8181101561071e57600086868381811061050757fe5b905060200201359050600085858481811061051e57fe5b90506020020135905060008a8a8581811061053557fe5b905060200201356001600160a01b031690506000816001600160a01b03166369940d796040518163ffffffff1660e01b815260040160206040518083038186803b15801561058257600080fd5b505afa158015610596573d6000803e3d6000fd5b505050506040513d60208110156105ac57600080fd5b505190506105cb6001600160a01b03821633848763ffffffff61081316565b6000826001600160a01b0316639ed374f76040518163ffffffff1660e01b815260040160206040518083038186803b15801561060657600080fd5b505afa15801561061a573d6000803e3d6000fd5b505050506040513d602081101561063057600080fd5b5051905061064f6001600160a01b03821633858763ffffffff61081316565b826001600160a01b0316633c6b16ab866040518263ffffffff1660e01b815260040180828152602001915050600060405180830381600087803b15801561069557600080fd5b505af11580156106a9573d6000803e3d6000fd5b5050604080513381526001600160a01b03808816602083015280871682840152606082018a90528516608082015260a0810188905290517f811c3d3b444e7a4c0015bb0ac2b2d16c91c3de8d09cd769f258e15c42048f6c793509081900360c0019150a15050600190930192506104f1915050565b5050505050505050565b61073061079d565b6001600160a01b0316336001600160a01b031614610791576040805162461bcd60e51b81526020600482015260196024820152784f6e6c7920676f7665726e6f722063616e206578656375746560381b604482015290519081900360640190fd5b61079a81610873565b50565b6008546040805163030d028960e21b815290516000926001600160a01b031691630c340a24916004808301926020929190829003018186803b1580156107e257600080fd5b505afa1580156107f6573d6000803e3d6000fd5b505050506040513d602081101561080c57600080fd5b5051905090565b604080516001600160a01b0385811660248301528416604482015260648082018490528251808303909101815260849091019091526020810180516001600160e01b03166323b872dd60e01b17905261086d908590610970565b50505050565b6001600160a01b0381166108c0576040805162461bcd60e51b815260206004820152600f60248201526e41646472657373206973207a65726f60881b604482015290519081900360640190fd5b6001600160a01b03811660009081526009602052604090205460ff1615610924576040805162461bcd60e51b8152602060048201526013602482015272105b1c9958591e481dda1a5d195b1a5cdd1959606a1b604482015290519081900360640190fd5b6001600160a01b038116600081815260096020526040808220805460ff19166001179055517faab7954e9d246b167ef88aeddad35209ca2489d95a8aeb59e288d9b19fae5a549190a250565b610982826001600160a01b0316610b28565b6109d3576040805162461bcd60e51b815260206004820152601f60248201527f5361666545524332303a2063616c6c20746f206e6f6e2d636f6e747261637400604482015290519081900360640190fd5b60006060836001600160a01b0316836040518082805190602001908083835b60208310610a115780518252601f1990920191602091820191016109f2565b6001836020036101000a0380198251168184511680821785525050505050509050019150506000604051808303816000865af19150503d8060008114610a73576040519150601f19603f3d011682016040523d82523d6000602084013e610a78565b606091505b509150915081610acf576040805162461bcd60e51b815260206004820181905260248201527f5361666545524332303a206c6f772d6c6576656c2063616c6c206661696c6564604482015290519081900360640190fd5b80511561086d57808060200190516020811015610aeb57600080fd5b505161086d5760405162461bcd60e51b815260040180806020018281038252602a815260200180610d5d602a913960400191505060405180910390fd5b6000813f7fc5d2460186f7233c927e7db2dcc703c0e500b653ca82273b7bfad8045d85a470818114801590610b5c57508115155b949350505050565b610b6d82610bf0565b6000815111610bbb576040805162461bcd60e51b8152602060048201526015602482015274456d7074792077686974656c69737420617272617960581b604482015290519081900360640190fd5b60005b8151811015610beb57610be3828281518110610bd657fe5b6020026020010151610873565b600101610bbe565b505050565b6001600160a01b038116610c43576040805162461bcd60e51b81526020600482015260156024820152744e657875732061646472657373206973207a65726f60581b604482015290519081900360640190fd5b600880546001600160a01b0319166001600160a01b03831617905561079a5b6040805169476f7665726e616e636560b01b8152815190819003600a9081018220600055665374616b696e6760c81b82528251918290036007908101832060015569283937bc3ca0b236b4b760b11b835283519283900390910182206002556827b930b1b632a43ab160b91b8252825191829003600990810183206003556626b0b730b3b2b960c91b8352835192839003820183206004556f2932b1b7b63630ba32b930b634b9b2b960811b835283519283900360100183206005556826b2ba30aa37b5b2b760b91b83528351928390030182206006556d29b0bb34b733b9a6b0b730b3b2b960911b8252915190819003600e019020905556fe5361666545524332303a204552433230206f7065726174696f6e20646964206e6f742073756363656564a265627a7a723158201b9ad23011a3717ae41a11492338cc89ca643bf06880ea685102b1f0a7c90ca764736f6c63430005100032",
  "linkReferences": {},
  "deployedLinkReferences": {}
}